{
  "_format": "hh-sol-artifact-1",
  "contractName": "MarketplaceProducts",
  "sourceName": "contracts/MarketplaceProducts.sol",
  "abi": [
    {
      "anonymous": false,
      "inputs": [
        {
          "indexed": false,
          "internalType": "string",
          "name": "name",
          "type": "string"
        },
        {
          "indexed": false,
          "internalType": "bool",
          "name": "sold",
          "type": "bool"
        },
        {
          "indexed": false,
          "internalType": "address payable",
          "name": "owner",
          "type": "address"
        },
        {
          "indexed": false,
          "internalType": "uint256",
          "name": "price",
          "type": "uint256"
        }
      ],
      "name": "BuyProduct",
      "type": "event"
    },
    {
      "anonymous": false,
      "inputs": [
        {
          "indexed": false,
          "internalType": "string",
          "name": "name",
          "type": "string"
        },
        {
          "indexed": false,
          "internalType": "string",
          "name": "description",
          "type": "string"
        },
        {
          "indexed": false,
          "internalType": "string",
          "name": "image",
          "type": "string"
        },
        {
          "indexed": false,
          "internalType": "bool",
          "name": "sold",
          "type": "bool"
        },
        {
          "indexed": false,
          "internalType": "address payable",
          "name": "owner",
          "type": "address"
        },
        {
          "indexed": false,
          "internalType": "uint256",
          "name": "price",
          "type": "uint256"
        },
        {
          "indexed": false,
          "internalType": "string",
          "name": "category",
          "type": "string"
        }
      ],
      "name": "CreatedProduct",
      "type": "event"
    },
    {
      "inputs": [
        {
          "internalType": "uint256",
          "name": "_id",
          "type": "uint256"
        }
      ],
      "name": "buyProduct",
      "outputs": [],
      "stateMutability": "payable",
      "type": "function"
    },
    {
      "inputs": [],
      "name": "count",
      "outputs": [
        {
          "internalType": "uint256",
          "name": "",
          "type": "uint256"
        }
      ],
      "stateMutability": "view",
      "type": "function"
    },
    {
      "inputs": [
        {
          "internalType": "string",
          "name": "name",
          "type": "string"
        },
        {
          "internalType": "string",
          "name": "description",
          "type": "string"
        },
        {
          "internalType": "string",
          "name": "image",
          "type": "string"
        },
        {
          "internalType": "uint256",
          "name": "price",
          "type": "uint256"
        },
        {
          "internalType": "string",
          "name": "category",
          "type": "string"
        }
      ],
      "name": "createProduct",
      "outputs": [],
      "stateMutability": "nonpayable",
      "type": "function"
    },
    {
      "inputs": [],
      "name": "storeName",
      "outputs": [
        {
          "internalType": "string",
          "name": "",
          "type": "string"
        }
      ],
      "stateMutability": "view",
      "type": "function"
    },
    {
      "inputs": [
        {
          "internalType": "uint256",
          "name": "",
          "type": "uint256"
        }
      ],
      "name": "storeProducts",
      "outputs": [
        {
          "internalType": "uint256",
          "name": "id",
          "type": "uint256"
        },
        {
          "internalType": "string",
          "name": "name",
          "type": "string"
        },
        {
          "internalType": "string",
          "name": "description",
          "type": "string"
        },
        {
          "internalType": "string",
          "name": "image",
          "type": "string"
        },
        {
          "internalType": "bool",
          "name": "sold",
          "type": "bool"
        },
        {
          "internalType": "address payable",
          "name": "owner",
          "type": "address"
        },
        {
          "internalType": "uint256",
          "name": "price",
          "type": "uint256"
        },
        {
          "internalType": "string",
          "name": "category",
          "type": "string"
        }
      ],
      "stateMutability": "view",
      "type": "function"
    }
  ],
  "bytecode": "0x60806040526040518060400160405280601c81526020017f574f4f204d61726b6574706c61636520446563656e74616c697a65640000000081525060009080519060200190620000519291906200006b565b5060006001553480156200006457600080fd5b5062000180565b82805462000079906200014a565b90600052602060002090601f0160209004810192826200009d5760008555620000e9565b82601f10620000b857805160ff1916838001178555620000e9565b82800160010185558215620000e9579182015b82811115620000e8578251825591602001919060010190620000cb565b5b509050620000f89190620000fc565b5090565b5b8082111562000117576000816000905550600101620000fd565b5090565b7f4e487b7100000000000000000000000000000000000000000000000000000000600052602260045260246000fd5b600060028204905060018216806200016357607f821691505b602082108114156200017a57620001796200011b565b5b50919050565b61185780620001906000396000f3fe60806040526004361061004a5760003560e01c806306661abd1461004f57806332e086a11461007a578063521936e6146100a35780638642269e146100ce578063e36fe830146100ea575b600080fd5b34801561005b57600080fd5b5061006461012e565b6040516100719190610dfa565b60405180910390f35b34801561008657600080fd5b506100a1600480360381019061009c9190610f9b565b610134565b005b3480156100af57600080fd5b506100b8610446565b6040516100c5919061110e565b60405180910390f35b6100e860048036038101906100e39190611130565b6104d4565b005b3480156100f657600080fd5b50610111600480360381019061010c9190611130565b610aa9565b6040516101259897969594939291906111b9565b60405180910390f35b60015481565b60008211610177576040517f08c379a000000000000000000000000000000000000000000000000000000000815260040161016e906112c5565b60405180910390fd5b60038551116101bb576040517f08c379a00000000000000000000000000000000000000000000000000000000081526004016101b290611331565b60405180910390fd5b600a8451116101ff576040517f08c379a00000000000000000000000000000000000000000000000000000000081526004016101f6906113c3565b60405180910390fd5b600a835111610243576040517f08c379a000000000000000000000000000000000000000000000000000000000815260040161023a90611455565b60405180910390fd5b6001815111610287576040517f08c379a000000000000000000000000000000000000000000000000000000000815260040161027e906114e7565b60405180910390fd5b6001600081548092919061029a90611536565b919050555060405180610100016040528060015481526020018681526020018581526020018481526020016000151581526020013373ffffffffffffffffffffffffffffffffffffffff1681526020018381526020018281525060026000600154815260200190815260200160002060008201518160000155602082015181600101908051906020019061032f929190610d3e565b50604082015181600201908051906020019061034c929190610d3e565b506060820151816003019080519060200190610369929190610d3e565b5060808201518160040160006101000a81548160ff02191690831515021790555060a08201518160040160016101000a81548173ffffffffffffffffffffffffffffffffffffffff021916908373ffffffffffffffffffffffffffffffffffffffff16021790555060c0820151816005015560e08201518160060190805190602001906103f7929190610d3e565b509050507f929fb5af3435ce580c3bbbf90caae3d2beef924c5649385440ae4082040311d98585856000338787604051610437979695949392919061157f565b60405180910390a15050505050565b6000805461045390611639565b80601f016020809104026020016040519081016040528092919081815260200182805461047f90611639565b80156104cc5780601f106104a1576101008083540402835291602001916104cc565b820191906000526020600020905b8154815290600101906020018083116104af57829003601f168201915b505050505081565b600060026000838152602001908152602001600020604051806101000160405290816000820154815260200160018201805461050f90611639565b80601f016020809104026020016040519081016040528092919081815260200182805461053b90611639565b80156105885780601f1061055d57610100808354040283529160200191610588565b820191906000526020600020905b81548152906001019060200180831161056b57829003601f168201915b505050505081526020016002820180546105a190611639565b80601f01602080910402602001604051908101604052809291908181526020018280546105cd90611639565b801561061a5780601f106105ef5761010080835404028352916020019161061a565b820191906000526020600020905b8154815290600101906020018083116105fd57829003601f168201915b5050505050815260200160038201805461063390611639565b80601f016020809104026020016040519081016040528092919081815260200182805461065f90611639565b80156106ac5780601f10610681576101008083540402835291602001916106ac565b820191906000526020600020905b81548152906001019060200180831161068f57829003601f168201915b505050505081526020016004820160009054906101000a900460ff161515151581526020016004820160019054906101000a900473ffffffffffffffffffffffffffffffffffffffff1673ffffffffffffffffffffffffffffffffffffffff1673ffffffffffffffffffffffffffffffffffffffff1681526020016005820154815260200160068201805461074090611639565b80601f016020809104026020016040519081016040528092919081815260200182805461076c90611639565b80156107b95780601f1061078e576101008083540402835291602001916107b9565b820191906000526020600020905b81548152906001019060200180831161079c57829003601f168201915b505050505081525050905060008160a001519050816080015115610812576040517f08c379a0000000000000000000000000000000000000000000000000000000008152600401610809906116b7565b60405180910390fd5b3373ffffffffffffffffffffffffffffffffffffffff168173ffffffffffffffffffffffffffffffffffffffff161415610881576040517f08c379a000000000000000000000000000000000000000000000000000000000815260040161087890611723565b60405180910390fd5b8160c001513410156108c8576040517f08c379a00000000000000000000000000000000000000000000000000000000081526004016108bf906117b5565b60405180910390fd5b8073ffffffffffffffffffffffffffffffffffffffff166108fc349081150290604051600060405180830381858888f1935050505015801561090e573d6000803e3d6000fd5b50338260a0019073ffffffffffffffffffffffffffffffffffffffff16908173ffffffffffffffffffffffffffffffffffffffff168152505060018260800190151590811515815250508160026000858152602001908152602001600020600082015181600001556020820151816001019080519060200190610992929190610d3e565b5060408201518160020190805190602001906109af929190610d3e565b5060608201518160030190805190602001906109cc929190610d3e565b5060808201518160040160006101000a81548160ff02191690831515021790555060a08201518160040160016101000a81548173ffffffffffffffffffffffffffffffffffffffff021916908373ffffffffffffffffffffffffffffffffffffffff16021790555060c0820151816005015560e0820151816006019080519060200190610a5a929190610d3e565b509050507f5c486e06f32e8967d75263ff34842d4aee2d3c4252f800869d0d0e3a0e7356cf82602001516001338560c00151604051610a9c94939291906117d5565b60405180910390a1505050565b6002602052806000526040600020600091509050806000015490806001018054610ad290611639565b80601f0160208091040260200160405190810160405280929190818152602001828054610afe90611639565b8015610b4b5780601f10610b2057610100808354040283529160200191610b4b565b820191906000526020600020905b815481529060010190602001808311610b2e57829003601f168201915b505050505090806002018054610b6090611639565b80601f0160208091040260200160405190810160405280929190818152602001828054610b8c90611639565b8015610bd95780601f10610bae57610100808354040283529160200191610bd9565b820191906000526020600020905b815481529060010190602001808311610bbc57829003601f168201915b505050505090806003018054610bee90611639565b80601f0160208091040260200160405190810160405280929190818152602001828054610c1a90611639565b8015610c675780601f10610c3c57610100808354040283529160200191610c67565b820191906000526020600020905b815481529060010190602001808311610c4a57829003601f168201915b5050505050908060040160009054906101000a900460ff16908060040160019054906101000a900473ffffffffffffffffffffffffffffffffffffffff1690806005015490806006018054610cbb90611639565b80601f0160208091040260200160405190810160405280929190818152602001828054610ce790611639565b8015610d345780601f10610d0957610100808354040283529160200191610d34565b820191906000526020600020905b815481529060010190602001808311610d1757829003601f168201915b5050505050905088565b828054610d4a90611639565b90600052602060002090601f016020900481019282610d6c5760008555610db3565b82601f10610d8557805160ff1916838001178555610db3565b82800160010185558215610db3579182015b82811115610db2578251825591602001919060010190610d97565b5b509050610dc09190610dc4565b5090565b5b80821115610ddd576000816000905550600101610dc5565b5090565b6000819050919050565b610df481610de1565b82525050565b6000602082019050610e0f6000830184610deb565b92915050565b6000604051905090565b600080fd5b600080fd5b600080fd5b600080fd5b6000601f19601f8301169050919050565b7f4e487b7100000000000000000000000000000000000000000000000000000000600052604160045260246000fd5b610e7c82610e33565b810181811067ffffffffffffffff82111715610e9b57610e9a610e44565b5b80604052505050565b6000610eae610e15565b9050610eba8282610e73565b919050565b600067ffffffffffffffff821115610eda57610ed9610e44565b5b610ee382610e33565b9050602081019050919050565b82818337600083830152505050565b6000610f12610f0d84610ebf565b610ea4565b905082815260208101848484011115610f2e57610f2d610e2e565b5b610f39848285610ef0565b509392505050565b600082601f830112610f5657610f55610e29565b5b8135610f66848260208601610eff565b91505092915050565b610f7881610de1565b8114610f8357600080fd5b50565b600081359050610f9581610f6f565b92915050565b600080600080600060a08688031215610fb757610fb6610e1f565b5b600086013567ffffffffffffffff811115610fd557610fd4610e24565b5b610fe188828901610f41565b955050602086013567ffffffffffffffff81111561100257611001610e24565b5b61100e88828901610f41565b945050604086013567ffffffffffffffff81111561102f5761102e610e24565b5b61103b88828901610f41565b935050606061104c88828901610f86565b925050608086013567ffffffffffffffff81111561106d5761106c610e24565b5b61107988828901610f41565b9150509295509295909350565b600081519050919050565b600082825260208201905092915050565b60005b838110156110c05780820151818401526020810190506110a5565b838111156110cf576000848401525b50505050565b60006110e082611086565b6110ea8185611091565b93506110fa8185602086016110a2565b61110381610e33565b840191505092915050565b6000602082019050818103600083015261112881846110d5565b905092915050565b60006020828403121561114657611145610e1f565b5b600061115484828501610f86565b91505092915050565b60008115159050919050565b6111728161115d565b82525050565b600073ffffffffffffffffffffffffffffffffffffffff82169050919050565b60006111a382611178565b9050919050565b6111b381611198565b82525050565b6000610100820190506111cf600083018b610deb565b81810360208301526111e1818a6110d5565b905081810360408301526111f581896110d5565b9050818103606083015261120981886110d5565b90506112186080830187611169565b61122560a08301866111aa565b61123260c0830185610deb565b81810360e083015261124481846110d5565b90509998505050505050505050565b7f5468652050726963652053686f756c64206265206c6172676572207468616e2060008201527f3000000000000000000000000000000000000000000000000000000000000000602082015250565b60006112af602183611091565b91506112ba82611253565b604082019050919050565b600060208201905081810360008301526112de816112a2565b9050919050565b7f546865204e616d652053686f756c64206265206c6172676572207468616e2033600082015250565b600061131b602083611091565b9150611326826112e5565b602082019050919050565b6000602082019050818103600083015261134a8161130e565b9050919050565b7f546865206465736372697074696f6e2053686f756c64206265206c617267657260008201527f207468616e203130000000000000000000000000000000000000000000000000602082015250565b60006113ad602883611091565b91506113b882611351565b604082019050919050565b600060208201905081810360008301526113dc816113a0565b9050919050565b7f54686520696d6167652055726c2053686f756c64206265206c6172676572207460008201527f68616e2033000000000000000000000000000000000000000000000000000000602082015250565b600061143f602583611091565b915061144a826113e3565b604082019050919050565b6000602082019050818103600083015261146e81611432565b9050919050565b7f5468652063617465676f72792053686f756c64206265206c617267657220746860008201527f616e203100000000000000000000000000000000000000000000000000000000602082015250565b60006114d1602483611091565b91506114dc82611475565b604082019050919050565b60006020820190508181036000830152611500816114c4565b9050919050565b7f4e487b7100000000000000000000000000000000000000000000000000000000600052601160045260246000fd5b600061154182610de1565b91507fffffffffffffffffffffffffffffffffffffffffffffffffffffffffffffffff82141561157457611573611507565b5b600182019050919050565b600060e0820190508181036000830152611599818a6110d5565b905081810360208301526115ad81896110d5565b905081810360408301526115c181886110d5565b90506115d06060830187611169565b6115dd60808301866111aa565b6115ea60a0830185610deb565b81810360c08301526115fc81846110d5565b905098975050505050505050565b7f4e487b7100000000000000000000000000000000000000000000000000000000600052602260045260246000fd5b6000600282049050600182168061165157607f821691505b602082108114156116655761166461160a565b5b50919050565b7f546869732050726f6475637420536f6c64656400000000000000000000000000600082015250565b60006116a1601383611091565b91506116ac8261166b565b602082019050919050565b600060208201905081810360008301526116d081611694565b9050919050565b7f43616e204e6f742042757920796f75722050726f647563740000000000000000600082015250565b600061170d601883611091565b9150611718826116d7565b602082019050919050565b6000602082019050818103600083015261173c81611700565b9050919050565b7f546865206d6f756e7420752073656e64202073686f756c64206265206571756160008201527f6c2070726f647563742070726963652000000000000000000000000000000000602082015250565b600061179f603083611091565b91506117aa82611743565b604082019050919050565b600060208201905081810360008301526117ce81611792565b9050919050565b600060808201905081810360008301526117ef81876110d5565b90506117fe6020830186611169565b61180b60408301856111aa565b6118186060830184610deb565b9594505050505056fea26469706673582212206f0c6bb24385006e835b615f5c3c01b6676b61c45a2d6b0dff9a8ef3554323cd64736f6c63430008090033",
  "linkReferences": {},
  "deployedLinkReferences": {}
}